{
  "_format": "hh-sol-artifact-1",
  "contractName": "WavePortal",
  "sourceName": "contracts/WavePortal.sol",
  "abi": [
    {
      "inputs": [],
      "stateMutability": "nonpayable",
      "type": "constructor"
    },
    {
      "anonymous": false,
      "inputs": [
        {
          "indexed": true,
          "internalType": "address",
          "name": "from",
          "type": "address"
        },
        {
          "indexed": false,
          "internalType": "uint256",
          "name": "timestamp",
          "type": "uint256"
        },
        {
          "indexed": false,
          "internalType": "string",
          "name": "message",
          "type": "string"
        }
      ],
      "name": "NewWave",
      "type": "event"
    },
    {
      "inputs": [],
      "name": "getAllWaves",
      "outputs": [
        {
          "components": [
            {
              "internalType": "address",
              "name": "waver",
              "type": "address"
            },
            {
              "internalType": "string",
              "name": "message",
              "type": "string"
            },
            {
              "internalType": "uint256",
              "name": "timestamp",
              "type": "uint256"
            }
          ],
          "internalType": "struct WavePortal.Wave[]",
          "name": "",
          "type": "tuple[]"
        }
      ],
      "stateMutability": "view",
      "type": "function"
    },
    {
      "inputs": [],
      "name": "getTotalWaves",
      "outputs": [
        {
          "internalType": "uint256",
          "name": "",
          "type": "uint256"
        }
      ],
      "stateMutability": "view",
      "type": "function"
    },
    {
      "inputs": [
        {
          "internalType": "address",
          "name": "",
          "type": "address"
        }
      ],
      "name": "totalWavesBySender",
      "outputs": [
        {
          "internalType": "uint256",
          "name": "",
          "type": "uint256"
        }
      ],
      "stateMutability": "view",
      "type": "function"
    },
    {
      "inputs": [
        {
          "internalType": "string",
          "name": "_message",
          "type": "string"
        }
      ],
      "name": "wave",
      "outputs": [],
      "stateMutability": "nonpayable",
      "type": "function"
    }
  ],
  "bytecode": "0x60806040523480156200001157600080fd5b506200004160405180606001604052806025815260200162001079602591396200004760201b620004d91760201c565b620001db565b620000e7816040516024016200005e919062000154565b6040516020818303038152906040527f41304fac000000000000000000000000000000000000000000000000000000007bffffffffffffffffffffffffffffffffffffffffffffffffffffffff19166020820180517bffffffffffffffffffffffffffffffffffffffffffffffffffffffff8381831617835250505050620000ea60201b60201c565b50565b60008151905060006a636f6e736f6c652e6c6f679050602083016000808483855afa5050505050565b6000620001208262000178565b6200012c818562000183565b93506200013e81856020860162000194565b6200014981620001ca565b840191505092915050565b6000602082019050818103600083015262000170818462000113565b905092915050565b600081519050919050565b600082825260208201905092915050565b60005b83811015620001b457808201518184015260208101905062000197565b83811115620001c4576000848401525b50505050565b6000601f19601f8301169050919050565b610e8e80620001eb6000396000f3fe608060405234801561001057600080fd5b506004361061004c5760003560e01c8063449d46c0146100515780637166f02b1461006d5780639a2cdc081461009d578063bd43a908146100bb575b600080fd5b61006b600480360381019061006691906108bb565b6100d9565b005b61008760048036038101906100829190610892565b610325565b6040516100949190610b65565b60405180910390f35b6100a561033d565b6040516100b29190610b65565b60405180910390f35b6100c3610388565b6040516100d09190610a83565b60405180910390f35b60016000808282546100eb9190610c6c565b9250508190555060018060003373ffffffffffffffffffffffffffffffffffffffff1673ffffffffffffffffffffffffffffffffffffffff16815260200190815260200160002060008282546101419190610c6c565b925050819055506101876040518060400160405280600d81526020017f257320686173207761766564210000000000000000000000000000000000000081525033610572565b6102066040518060400160405280601681526020017f2573206861732077617665642025732074696d6573210000000000000000000081525033600160003373ffffffffffffffffffffffffffffffffffffffff1673ffffffffffffffffffffffffffffffffffffffff1681526020019081526020016000205461060e565b600260405180606001604052803373ffffffffffffffffffffffffffffffffffffffff16815260200183815260200142815250908060018154018082558091505060019003906000526020600020906003020160009091909190915060008201518160000160006101000a81548173ffffffffffffffffffffffffffffffffffffffff021916908373ffffffffffffffffffffffffffffffffffffffff16021790555060208201518160010190805190602001906102c5929190610772565b506040820151816002015550503373ffffffffffffffffffffffffffffffffffffffff167f5f7e16dc676677766a70e9c5628aa6c54ddb8b6e5188e2ae1e1f17f1ffbea716428360405161031a929190610b80565b60405180910390a250565b60016020528060005260406000206000915090505481565b60006103806040518060400160405280601781526020017f5765206861766520256420746f74616c207761766573210000000000000000008152506000546106ad565b600054905090565b60606002805480602002602001604051908101604052809291908181526020016000905b828210156104d057838290600052602060002090600302016040518060600160405290816000820160009054906101000a900473ffffffffffffffffffffffffffffffffffffffff1673ffffffffffffffffffffffffffffffffffffffff1673ffffffffffffffffffffffffffffffffffffffff16815260200160018201805461043590610d40565b80601f016020809104026020016040519081016040528092919081815260200182805461046190610d40565b80156104ae5780601f10610483576101008083540402835291602001916104ae565b820191906000526020600020905b81548152906001019060200180831161049157829003601f168201915b50505050508152602001600282015481525050815260200190600101906103ac565b50505050905090565b61056f816040516024016104ed9190610aa5565b6040516020818303038152906040527f41304fac000000000000000000000000000000000000000000000000000000007bffffffffffffffffffffffffffffffffffffffffffffffffffffffff19166020820180517bffffffffffffffffffffffffffffffffffffffffffffffffffffffff8381831617835250505050610749565b50565b61060a8282604051602401610588929190610ac7565b6040516020818303038152906040527f319af333000000000000000000000000000000000000000000000000000000007bffffffffffffffffffffffffffffffffffffffffffffffffffffffff19166020820180517bffffffffffffffffffffffffffffffffffffffffffffffffffffffff8381831617835250505050610749565b5050565b6106a883838360405160240161062693929190610af7565b6040516020818303038152906040527f07c81217000000000000000000000000000000000000000000000000000000007bffffffffffffffffffffffffffffffffffffffffffffffffffffffff19166020820180517bffffffffffffffffffffffffffffffffffffffffffffffffffffffff8381831617835250505050610749565b505050565b61074582826040516024016106c3929190610b35565b6040516020818303038152906040527f9710a9d0000000000000000000000000000000000000000000000000000000007bffffffffffffffffffffffffffffffffffffffffffffffffffffffff19166020820180517bffffffffffffffffffffffffffffffffffffffffffffffffffffffff8381831617835250505050610749565b5050565b60008151905060006a636f6e736f6c652e6c6f679050602083016000808483855afa5050505050565b82805461077e90610d40565b90600052602060002090601f0160209004810192826107a057600085556107e7565b82601f106107b957805160ff19168380011785556107e7565b828001600101855582156107e7579182015b828111156107e65782518255916020019190600101906107cb565b5b5090506107f491906107f8565b5090565b5b808211156108115760008160009055506001016107f9565b5090565b600061082861082384610bd5565b610bb0565b90508281526020810184848401111561084057600080fd5b61084b848285610cfe565b509392505050565b60008135905061086281610e41565b92915050565b600082601f83011261087957600080fd5b8135610889848260208601610815565b91505092915050565b6000602082840312156108a457600080fd5b60006108b284828501610853565b91505092915050565b6000602082840312156108cd57600080fd5b600082013567ffffffffffffffff8111156108e757600080fd5b6108f384828501610868565b91505092915050565b60006109088383610a15565b905092915050565b61091981610cc2565b82525050565b61092881610cc2565b82525050565b600061093982610c16565b6109438185610c39565b93508360208202850161095585610c06565b8060005b85811015610991578484038952815161097285826108fc565b945061097d83610c2c565b925060208a01995050600181019050610959565b50829750879550505050505092915050565b60006109ae82610c21565b6109b88185610c4a565b93506109c8818560208601610d0d565b6109d181610e30565b840191505092915050565b60006109e782610c21565b6109f18185610c5b565b9350610a01818560208601610d0d565b610a0a81610e30565b840191505092915050565b6000606083016000830151610a2d6000860182610910565b5060208301518482036020860152610a4582826109a3565b9150506040830151610a5a6040860182610a65565b508091505092915050565b610a6e81610cf4565b82525050565b610a7d81610cf4565b82525050565b60006020820190508181036000830152610a9d818461092e565b905092915050565b60006020820190508181036000830152610abf81846109dc565b905092915050565b60006040820190508181036000830152610ae181856109dc565b9050610af0602083018461091f565b9392505050565b60006060820190508181036000830152610b1181866109dc565b9050610b20602083018561091f565b610b2d6040830184610a74565b949350505050565b60006040820190508181036000830152610b4f81856109dc565b9050610b5e6020830184610a74565b9392505050565b6000602082019050610b7a6000830184610a74565b92915050565b6000604082019050610b956000830185610a74565b8181036020830152610ba781846109dc565b90509392505050565b6000610bba610bcb565b9050610bc68282610d72565b919050565b6000604051905090565b600067ffffffffffffffff821115610bf057610bef610e01565b5b610bf982610e30565b9050602081019050919050565b6000819050602082019050919050565b600081519050919050565b600081519050919050565b6000602082019050919050565b600082825260208201905092915050565b600082825260208201905092915050565b600082825260208201905092915050565b6000610c7782610cf4565b9150610c8283610cf4565b9250827fffffffffffffffffffffffffffffffffffffffffffffffffffffffffffffffff03821115610cb757610cb6610da3565b5b828201905092915050565b6000610ccd82610cd4565b9050919050565b600073ffffffffffffffffffffffffffffffffffffffff82169050919050565b6000819050919050565b82818337600083830152505050565b60005b83811015610d2b578082015181840152602081019050610d10565b83811115610d3a576000848401525b50505050565b60006002820490506001821680610d5857607f821691505b60208210811415610d6c57610d6b610dd2565b5b50919050565b610d7b82610e30565b810181811067ffffffffffffffff82111715610d9a57610d99610e01565b5b80604052505050565b7f4e487b7100000000000000000000000000000000000000000000000000000000600052601160045260246000fd5b7f4e487b7100000000000000000000000000000000000000000000000000000000600052602260045260246000fd5b7f4e487b7100000000000000000000000000000000000000000000000000000000600052604160045260246000fd5b6000601f19601f8301169050919050565b610e4a81610cc2565b8114610e5557600080fd5b5056fea2646970667358221220595b72cee296f94645495670f88653ce940293970a9fbfe83ad06c28d0b3275264736f6c63430008040033596f20796f2c204920616d206120636f6e747261637420616e64204920616d20736d617274",
  "linkReferences": {},
  "deployedLinkReferences": {}
}